:100000000C94EE020C941F030C941F030C941F031A
:100010000C941F030C941F030C941F030C941F03D8
:100020000C941F030C941F030C941F030C941F03C8
:100030000C941F030C941F030C941F030C941F03B8
:100040000C941F030C94AE220C941F030C941F03FA
:100050000C941F030C941F030C941F030C944C204E
:100060000C941F030C94C0200C9496200C941F0336
:100070000C941F030C941F030C941F030C941F0378
:100080000C9480220C941F030C941F030C941F03E8
:100090000C941F030C941F030C941F030C94042155
:1000A0000C941F030C941F030C9452220C941F03F6
:1000B0000C941F030C941F030C941F030C94242214
:1000C0000C941F030C941F030C941F030C941F0328
:1000D0000C941F030C941F030C941F030C941F0318
:1000E0000C941F030C94B9070C94E9030C940504B9
:1000F0000C945F1C0C94CD080C94D3160C943C12F9
:100100000C9431050C94C30F0C9422090C94FA053D
:100110000C94DD130C94AD070C94B1070C949F1D47
:100120000C940B1C0C9485080C9403050C94DC2295
:100130000C9427050C944A050C9408060C94F904B9
:100140000C9468070C9448200C9454090C940110EA
:100150000C94D2030C94B7080C94F51E0C946A1AF4
:100160000C944D090C943F1E0C94520F0C942D12BC
:100170000C9473170C94971C0C945E050C94500F00
:100180000C942A1E0C948F060C94F4130C94AD1B43
:100190000C94B60F0C9486070C9413050C947205FE
:1001A0000C9431090C9409040C94C11F0C94ED03B8
:1001B0000C9454050C94B5070C94E5040C94360F7C
:1001C0000C943F090C9420140C94D9030C9434071C
:1001D0000C947D130C94CA030C946F0D0C94F703CC
:1001E0000C94D4050C94FB030C94E2120C94D70FDE
:1001F0000C94F1030C944F1F0C94EF040C94171EF5
:100200000C94C51D0C9442060C9446090C94E3050D
:100210000C94C4030C9440050C94AB070C94040498
:100220000C94AF070C941D050C94DF030C94D804B8
:100230000C940D140C94A7050C942A090C94FF033C
:100240000C94E0040C9468050C9427170C94331458
:100250000C94D6030C940F080C940B090C943809D9
:100260000C94CE030C94E51A0C9430080C94B70748
:100270000C94761D0C940B050C94B3070C94640835
:100280000C94E3036E2F61004F4B004F4B004F4B1C
:1002900000427574746F6E20646F6573206E6F74A6
:1002A0002066697420696E204D656D6F7279004F0C
:1002B000757470757420646F6573206E6F7420663A
:1002C000697420696E204D656D6F727900375365D2
:1002D000676D656E7420646F6573206E6F74206641
:1002E000697420696E204D656D6F727921005365C8
:1002F00072766F20646F6573206E6F742066697408
:1003000020696E204D656D6F727921004C43442049
:10031000646F6573206E6F742066697420696E2047
:100320004D656D6F72792100416E616C6F67496E2A
:1003300020646F6573206E6F742066697420696E27
:10034000204D656D6F7279004F75747075745368C8
:10035000696674657220646F6573206E6F742066C1
:10036000697420696E204D656D6F727900496E70F9
:1003700075745368696674657220646F6573206E66
:100380006F742066697420696E204D656D6F727997
:10039000004661696C757265206F6E2072656164DC
:1003A000696E6720636F6E66696700456E636F6490
:1003B00065727320646F6573206E6F742066697454
:1003C00020696E204D656D6F7279007E306D7933D6
:1003D0005B5F707F7B771F0D3D4F47000000000083
:1003E000000000000000000000000000000000000D
:1003F00000000000000000800180257E306D793310
:100400005B5F707F7B00000009000000777F4E7EFD
:100410004F475F37307C000E00767E677E775B4605
:100420003E000000336D4E13780008007D1F0D3D27
:100430004F477B373038000600151D6773055B0F8B
:100440001C000000276D4E007800004D4653746577
:100450007070657220646F6573206E6F74206669BA
:100460007420696E204D656D6F72790053746570EC
:1004700070657220646F6573206E6F742066697496
:1004800020696E204D656D6F727921004465766933
:100490006365427566666572204F766572666C6F3D
:1004A0007721004C6F6164696E6720636F6E6669C7
:1004B00067206661696C65640000002100240027E4
:1004C000002A002D00300033000101000004010764
:1004D000010A0100002200250028002B002E003117
:1004E00000340002010000050108010B010000209A
:1004F000002300260029002C002F003200000100FC
:10050000000301060109010505050507050808089E
:1005100008020202020A0A08080404040401010194
:10052000010101010103030303030303030407079C
:10053000070C0C0C0C0C0C0C0C020202020606063A
:1005400006060606060B0B0B0B0B0B0B0B01021022
:1005500020200808102040102040800201020108DD
:10056000040201010204081020408080402010088D
:1005700004020180040201804020100804020108E6
:100580000402010102040810204080010204081046
:1005900020408000000A0B02090C0D0E080703041E
:1005A000010000000000000000000000000000004A
:1005B0000000000000000000000000000000001229
:1005C000111000000000000000000000000000000A
:1005D00000000000000000000000DC2211241FBE0B
:1005E000CFEFD1E2DEBFCDBF00E00CBF13E0A0E053
:1005F000B2E0ECECF6E600E00BBF02C007900D9213
:10060000A235B107D9F723E1A2E5B3E001C01D92FD
:10061000A638B207E1F712E0CEEED2E000E006C065
:1006200021970109802FFE010E94D82DCD3ED107D0
:1006300080E00807A9F70E9457230C9464330C94B8
:100640000000AC01109271129091411380914013FF
:10065000FA01BF01641B750B209171123081309338
:100660007112931304C0921302C010927112308160
:10067000311104C0921721F0CB0108953817D1F33E
:100680003196E7CF0F931F93CF93DF93809135136C
:10069000882309F446C0D0E0C0E0813029F482E02C
:1006A00080933513C5E7D2E180913613882341F159
:1006B000209721F4C0913A13D0913B138E01CE01C3
:1006C0000E942103892B29F42196F8018081811150
:1006D000F5CFF8018081882309F1C8010E94210328
:1006E000F801E80FF91F8081882311F010823196FC
:1006F000F0933B13E0933A1310933913009338139C
:100700008091381390913913892B59F081E08093AF
:100710003613DF91CF911F910F91089510E000E003
:10072000EBCF80E0F6CF0E944203882351F081E0B6
:100730008093361380933713809138139091391337
:1007400008951092371390E080E00895815082312F
:1007500008F05AC0E82FF0E08827EE54FC4F8F4F86
:100760000C94D82DD203D603C403CA03CE030404C9
:10077000D903DF03E303E903ED03F103F703FB030D
:100780000404FF0305040904809180008F7780939F
:1007900080000895809180008F7DF9CF8091800046
:1007A000877FF5CF84B58F7784BD089584B58F7D1D
:1007B000FBCF8091B0008F778093B0000895809137
:1007C000B0008F7DF9CF809190008F77809390005B
:1007D0000895809190008F7DF9CF80919000877F60
:1007E000F5CF8091A0008F778093A000089580912D
:1007F000A0008F7DF9CF8091A000877FF5CF8091F9
:1008000020018F77809320010895809120018F7DB2
:10081000F9CF80912001877FF5CFCF93DF93282FE9
:1008200030E0F901ED56FA4F8491F901E35BFA4F9C
:10083000D491F901E95FFA4FC491CC23A1F0811161
:100840000E94A603EC2FF0E0EE0FFF1FE351FB4FD9
:10085000A591B491EC91ED2381E090E009F480E062
:10086000DF91CF91089580E090E0FACF1F93CF936E
:10087000DF93282F30E0F901ED56FA4F8491F9010A
:10088000E35BFA4FD491F901E95FFA4FC491CC23AD
:10089000A9F0162F81110E94A603EC2FF0E0EE0FB5
:1008A000FF1FED52FB4FA591B4918FB7F894EC91D7
:1008B000111108C0D095DE23DC938FBFDF91CF915B
:1008C0001F910895DE2BF8CFCF93DF9390E0FC01CA
:1008D000E35BFA4F2491895F9A4FFC01849188234E
:1008E000C9F090E0880F991FFC01E754FB4FA591D8
:1008F000B491FC01ED52FB4FC591D49161110DC033
:100900009FB7F8948C91209582238C93888128231B
:1009100028839FBFDF91CF910895623051F49FB734
:10092000F8943C91822F809583238C93E8812E2B21
:10093000EFCF8FB7F894EC912E2B2C938FBFEACF8B
:100940001F93CF93DF93182FEB0161E00E946404A3
:10095000209739F460E0812FDF91CF911F910C94A3
:100960003604CF3FD10511F461E0F5CFE12FF0E07F
:10097000ED56FA4FE491E150E23108F0B3C0F0E0F7
:100980008827EA53FB4F8F4F0C94D82DD804E004EE
:10099000E504EF04F904720503050B0513051D05B5
:1009A0002705310540054A05720554055E056805B1
:1009B00084B5806884BDC7BDDF91CF911F91089534
:1009C00084B5806284BDC8BDF7CF80918000806807
:1009D00080938000D0938900C0938800EDCF8091F0
:1009E0008000806280938000D0938B00C0938A0047
:1009F000E3CF80918000886080938000D0938D0049
:100A0000C0938C00D9CF8091B00080688093B000F3
:100A1000C093B300D1CF8091B00080628093B000CA
:100A2000C093B400C9CF80919000806880939000FB
:100A3000D0939900C0939800BFCF809190008062BE
:100A400080939000D0939B00C0939A00B5CF809183
:100A50009000886080939000D0939D00C0939C008C
:100A6000ABCF8091A00080688093A0008091A0000F
:100A70008F7B8093A000D093A900C093A8009CCF47
:100A80008091A00080628093A000D093AB00C093BF
:100A9000AA0092CF8091A00088608093A000D0939C
:100AA000AD00C093AC0088CF809120018068809316
:100AB0002001D0932901C09328017ECF809120018D
:100AC000806280932001D0932B01C0932A0174CFC0
:100AD00080912001886080932001D0932D01C093E4
:100AE0002C016ACFC038D1050CF03ECF33CF86330E
:100AF00008F0865320917B00982F9870277F922BC7
:100B000090937B008770806480937C0080917A0052
:100B1000806480937A0080917A0086FDFCCF80917A
:100B200078009091790008952FB7F8946091D10BD7
:100B30007091D20B8091D30B9091D40B2FBF08955D
:100B4000DC01ED91FC910190F081E02D1994AF92C0
:100B5000BF92CF92DF92EF92FF920F931F93CF93AA
:100B6000DF936C017B018B01040F151FEB015E010C
:100B7000AE18BF08C017D10759F06991D601ED91A1
:100B8000FC910190F081E02DC6011995892B79F730
:100B9000C501DF91CF911F910F91FF90EF90DF90F2
:100BA000CF90BF90AF900895FC01538D448D252FB9
:100BB00030E0842F90E0821B930B541710F0CF96F7
:100BC000089501970895FC01918D828D981779F011
:100BD000A28DAE0FBF2FB11D5D962C91828D8F5FC0
:100BE00060E60E94962D928F822F90E008958FEFFD
:100BF0009FEF0895FC01918D828D981731F0828DC1
:100C0000E80FF11D858D90E008958FEF9FEF089517
:100C1000FC01918D228D892F90E0805A9F4F821B7D
:100C2000910960E670E00E94B02D08958FEA91E18D
:100C30000E94080621E0892B09F420E0822F089504
:100C4000FC01A48DA80FB92FB11DA358BF4F2C9143
:100C5000848D90E001968F739927848FA689B78938
:100C60002C93A089B1898C91837080648C93938D2F
:100C7000848D981306C00288F389E02D80818F7DD2
:100C800080830895EF92FF920F931F93CF93DF938A
:100C9000EC0181E0888F9B8D8C8D98131AC0E889B8
:100CA000F989808185FF15C09FB7F894EE89FF8987
:100CB0006083E889F98980818370806480839FBF25
:100CC00081E090E0DF91CF911F910F91FF90EF9025
:100CD0000895F62E0B8D10E00F5F1F4F0F73112735
:100CE000E02E8C8D8E110CC00FB607FCFACFE88970
:100CF000F989808185FFF5CFCE010E942006F1CFD2
:100D0000EB8DEC0FFD2FF11DE358FF4FF0829FB7E5
:100D1000F8940B8FEA89FB8980818062CFCFCF93D3
:100D2000DF93EC01888D8823B9F0AA89BB89E88913
:100D3000F9898C9185FD03C0808186FD0DC00FB6B9
:100D400007FCF7CF8C9185FFF2CF808185FFEDCF37
:100D5000CE010E942006E9CFDF91CF91089580E077
:100D600090E0892B29F00E94160681110E94000054
:100D700080E090E0892B49F080E090E0892B29F019
:100D80000E94000081110E94000080E090E0892B09
:100D900049F080E090E0892B29F00E940000811149
:100DA0000E94000080E090E0892B49F080E090E014
:100DB000892B29F00E94000081110C9400000895F5
:100DC00020917709260F3327331F21323105ECF4A8
:100DD00020919B09FC0190E080E0243069F082E0E2
:100DE0000895A09177092191AC01495A564FA40F5B
:100DF000B52FB11D2C930196861798F38091770932
:100E0000680F6093770980E0089581E00895089560
:100E10008FEF9FEF08958FEF9FEF08958091500916
:100E200090E09195819591090895CF93DF93CB013F
:100E3000EA01642F0E94E006CE01DF91CF91089570
:100E4000CF93DF931F92CDB7DEB7698361E0CE0108
:100E500001960E94E00681E090E00F90DF91CF9133
:100E6000089590E080E00895CF93DF93FC01238103
:100E7000222359F1EC0161E084810E94640461E065
:100E80008D810E9464048B81843011F08830B1F42C
:100E900061E08E810E94640461E08F810E9464049D
:100EA0008FA58F3F91F061E00E9464046EA581E000
:100EB00068278FA5DF91CF910C943604833011F011
:100EC000863071F761E08E81E9CFDF91CF9108958F
:100ED000CF93DF93FC0123812223A9F0EC01019041
:100EE000F081E02D0480F581E02D60E019958FA55B
:100EF0008F3F49F061E00E9464046EA58FA5DF91E9
:100F0000CF910C943604DF91CF910895DC01ED91DF
:100F1000FC911197248135814770552766277727E3
:100F20004150510961097109473051056105710549
:100F300070F4FA018827E056F84F8F4F0C94D82DA3
:100F4000AB07AD07AF07B107B307B507B70761E058
:100F5000CD01F901199465E0FBCF64E0F9CF66E0BB
:100F6000F7CF62E0F5CF6AE0F3CF68E0F1CF69E058
:100F7000EFCFCF93DF93EC01CB01BA0126E030E055
:100F800040E050E00E94232D6230710581059105FB
:100F900089F16CF46115710581059105D1F061301D
:100FA000710581059105F9F0DF91CF9108956430C5
:100FB00071058105910561F124F1653071058105A7
:100FC000910591F7E881F9810480F581E02D66E0D3
:100FD00006C0E881F9810480F581E02D64E0CE014E
:100FE000DF91CF911994E881F9810480F581E02D9A
:100FF00065E0F5CFE881F9810480F581E02D61E0BD
:10100000EECFE881F9810480F581E02D63E0E7CF40
:10101000E881F9810480F581E02D62E0E0CFDC0118
:10102000ED91FC910480F581E02D437055276627F2
:101030007727423051056105710571F04330510544
:101040006105710559F0413051056105710511F0D7
:1010500065E0199466E0FDCF6AE0FBCF69E0F9CF67
:10106000CF93DF93EC01CB01BA0123E030E040E005
:1010700050E00E94232D613071058105910599F0A2
:101080006230710581059105A9F0672B682B692BEA
:10109000C1F4E881F9810480F581E02D64E0CE019E
:1010A000DF91CF911994E881F9810480F581E02DD9
:1010B00061E0F5CFE881F9810480F581E02D62E0FF
:1010C000EECFDF91CF910895DC01ED91FC9104808A
:1010D000F581E02D4370552766277727423051056B
:1010E0006105710571F0433051056105710559F0D5
:1010F000413051056105710511F062E0199463E01A
:10110000FDCF61E0FBCF60E0F9CFCF93DF93EC013F
:10111000E881F9810480F581E02D8A8160E0811108
:1011200062E0CE011995E881F9810480F581E02D16
:101130008A8161E0811163E0CE0119958CA59DA59E
:101140008230910538F0880F991F880F991F0597F5
:101150000197F1F7E881F9810480F581E02D8A811A
:1011600060E0811162E0CE01DF91CF911994CF93BD
:10117000DF93EC0120E030E0A9016C897D898E8944
:101180009F890E94F52E18162CF4E8A9F9A9DF9181
:10119000CF911994EAA9FBA9FACFCF92DF92EF92EF
:1011A000FF920F931F93CF93DF93DC011396CC91A3
:1011B000C43039F0C83059F1C33019F0C63049F1A4
:1011C000C2E08C010C5F1F4FF12CE12CC62ED12CFC
:1011D000D1E0F8016481C6010E2C02C09595879577
:1011E0000A94E2F780FD6D270F5F1F4F80810E94F8
:1011F0003604BFEFEB1AFB0AEC1658F3DF91CF91E0
:101200001F910F91FF90EF90DF90CF900895C4E071
:10121000D8CFC3E0D6CFDC011396EC911397E93019
:1012200008F042C0F0E08827E75EF64F8F4F0C943D
:10123000D82D22092A09310938093F0954094609DC
:1012400054094D09ED91FC9111970084F185E02D31
:10125000CD011994ED91FC9111970284F385E02D55
:10126000F7CFED91FC9111970484F585E02DF0CF37
:10127000ED91FC9111970684F785E02DE9CFED9172
:10128000FC9111970088F189E02DE2CFED91FC915E
:1012900011970288F389E02DDBCFED91FC91119736
:1012A0000488F589E02DD4CF08954F925F926F9214
:1012B0007F928F929F92AF92BF92CF92DF92EF92E6
:1012C000FF920F931F93CF93DF93EC01C888D988C7
:1012D000EA88FB888C859D85AE85BF85C81AD90AAA
:1012E000EA0AFB0A6C897D898E899F899B01AC0182
:1012F0000E944F2C4B015C016C8D7D8D8E8D9F8DDE
:101300009B01AC010E94E12D9B01AC01C501B40120
:101310000E944D2E0E94BF2EC114D104E104F1049D
:1013200009F0B1C062307105810591050CF0CBC0A8
:101330001CA21DA21EA21FA21C8A1D8A1E8A1F8A11
:101340001CAA1DAA1EAA1FAADF91CF911F910F915F
:10135000FF90EF90DF90CF90BF90AF909F908F90D5
:101360007F906F905F904F900895101611061206AF
:101370001306B4F46C157D058E059F051CF42A81B7
:101380002111A1C09B01AC0188279927DC01821B98
:10139000930BA40BB50B8CAB9DABAEABBFAB93C0AB
:1013A000011511052105310509F48DC06C157D0568
:1013B0008E059F050CF087C08A81882309F483C0BD
:1013C00030952095109501951F4F2F4F3F4F0CAB37
:1013D0001DAB2EAB3FAB77C00115110521053105C3
:1013E00009F471C08824992454018C189D08AE0812
:1013F000BF08681579058A059B050CF064C08A81D1
:10140000811161C0DDCFCCACDDACEEACFFACA7018F
:101410009601C701B6010E94E12D2B013C01C501D7
:10142000B4010E94F02B20E030E040E850E40E943C
:101430004F2C20E030E040E85FE30E94E12D9B016B
:10144000AC01C301B2010E944D2E9B01AC01C7014A
:10145000B6010E94E02D3B016C01FE01E05CFF4FF4
:10146000E080F180028113819701A8010E94F52E8E
:10147000181614F473018601C701D8018CAF9DAF13
:10148000AEAFBFAF3AC00CA91DA92EA93FA91C142D
:101490001D041E041F040CF468CF1016110612065A
:1014A00013060CF099CF0027112798010C191D097C
:1014B0002E093F0960177107820793070CF062CF6E
:1014C0002A8121115FCF8CA89DA8AEA8BFA8811446
:1014D0009104A104B10409F096CF88AD99ADAAADED
:1014E000BBAD8CAF9DAFAEAFBFAF81E01C141D0490
:1014F0001E041F040CF080E08A833FEF831A930AD6
:10150000A30AB30A8CAA9DAAAEAABFAACCACDDAC32
:10151000EEACFFACC701B6010E94C62E6CA37DA342
:101520008EA39FA3A701960160E074E284E799E48B
:101530000E944D2E6C8B7D8B8E8B9F8B2A8121116F
:1015400003CF90586C8B7D8B8E8B9F8BFDCEAF9293
:10155000BF92CF92DF92EF92FF920F931F93CF93A0
:10156000DF936B017A01EC01C45BD64F28813CE02C
:10157000389F8001399F100D1124A0904B09B12C88
:1015800027FF1FC0FB011182108288818F5F888333
:1015900088819801280F311D87FD3A95F6012A159B
:1015A0003B051CF488818C30C4F1808191810496C4
:1015B00080349C4908F473C0F601808191810496BF
:1015C00070C088819801280F311D87FD3A952A1532
:1015D0003B05DCF68881A801480F511D87FD5A950F
:1015E000FA01EE0FFF1FE40FF51FEA5BF54F808154
:1015F00086FFCBCF8881F801E80FF11D87FDFA95B2
:10160000CF01EE0FFF1FE80FF91FEA5BF54F808156
:1016100060E08F730E943604B8CF80819181288169
:10162000A801420F511D27FD5A959A01FA01EE0FAC
:10163000FF1FE20FF31FEA5BF54F21813281820F1A
:10164000931FF7019183808388819801280F311DB2
:1016500087FD3A95F901EE0FFF1FE20FF31FEA5BDA
:10166000F54F808186FF22C08881080F111D87FDFC
:101670001A95F801EE0FFF1FE00FF11FEA5BF54F1F
:10168000808161E08F73DF91CF911F910F91FF9067
:10169000EF90DF90CF90BF90AF900C94360480E431
:1016A0009CE9F701918380838FEF8883DF91CF914D
:1016B0001F910F91FF90EF90DF90CF90BF90AF9070
:1016C00008952091490930914A09280F311D81E080
:1016D0002D3D354008F080E00895FC018481882389
:1016E000E1F08181811119C081E081838281938140
:1016F000FC014089518962897389403659476E4F90
:101700007F4F59F040E659E76EEF7FEFFC01408BC9
:10171000518B628B738B0C9455090895DF92EF9275
:10172000FF920F931F93CF93DF937C01D62FD42E7C
:10173000C0E00BE410E060E0F70182810E94360413
:10174000C8010197F1F76D2F661F6627661FF70125
:1017500081810E943604C8010197F1F761E0F70129
:1017600082810E943604C8010197F1F7CF5FDD0F37
:10177000DC12E1CFDF91CF911F910F91FF90EF909D
:10178000DF9008951F93CF93DF93EC01162F60E055
:1017900088810E94360444E060E8CE010E948E0BEE
:1017A00048E0612FCE010E948E0B61E08881DF91BD
:1017B000CF911F910C943604AF92BF92CF92DF92DB
:1017C000EF92FF920F931F93CF93DF93EC01162FAD
:1017D00069017A0160E088810E94360443E060EA92
:1017E000CE010E948E0B612F660F660F46E0CE0180
:1017F0000E948E0B10E09BE4A92EB12C60E08A8140
:101800000E943604C5010197F1F76C2D6170898142
:101810000E943604C5010197F1F761E08A810E94B8
:101820003604C5010197F1F71F5FF694E794D7944A
:10183000C7940113E3CF61E08881DF91CF911F91BD
:101840000F91FF90EF90DF90CF90BF90AF900C94EE
:1018500036040F93FC01E60FF11D23A130E050E0A8
:1018600040E0660F08E00E94DC0B0F9108959C0198
:101870004D3008F04BE0D901A60FB11D93969C9115
:1018800093979170E42FF0E0E259FD4F8081982BFF
:1018900093969C93C9010C94290CCF92DF92EF92FE
:1018A000FF920F931F93CF93DF938C01EB01683E60
:1018B000734010F0C7EED3E08AE0E82EF12CCE01A1
:1018C000B7010E94B02D6B01482F62E0C8010E9451
:1018D000370CC601B7010E94B02D482F61E0C80146
:1018E0000E94370CCE0164E670E00E94B02D462FB6
:1018F00060E0C801DF91CF911F910F91FF90EF90B1
:10190000DF90CF900C94370CE0915603F091570381
:10191000309729F0DC014D915C9181E01994089594
:1019200041110BC0E0915603F0915703309729F015
:10193000DC014D915C9180E019940C94840CDC01E5
:10194000E0915403F0915503309761F013968C9118
:101950001397882339F04D915C91119712966C91F1
:1019600081E019940895DC01E0915403F09155034E
:10197000309759F013968C911397811106C04D91B1
:101980005C91119712966C91199408950E94940598
:101990006093140A7093150A8093160A9093170A9D
:1019A00008952091AD113091AE118217930710F474
:1019B0000C940D2D80E00895EF92FF920F931F93EA
:1019C000CF93DF938B01040F151FEB017C01E61A07
:1019D000F70AC7018C0F9D1F0E94D10C8993C01775
:1019E000D107B9F7DF91CF911F910F91FF90EF9041
:1019F00008950F931F93CF93DF938C01EB01F801B0
:101A0000808191819C012F5F3F4F318320830E9411
:101A1000D10C28813981A9014F5F5F4F59834883D9
:101A20002B52344FF901808328813981283EF3E01D
:101A30003F0760F48A3319F72C52344FF9011082B2
:101A400081E0DF91CF911F910F91089580E0F9CF50
:101A5000EF92FF920F931F93CF93DF93EC01E090EF
:101A6000AD11F090AE11888199818C010F5F1F4FED
:101A7000198308830E94D10CE016F10650F08A33D6
:101A800091F781E0DF91CF911F910F91FF90EF903F
:101A9000089580E0F7CFFF920F931F93CF93DF93CA
:101AA000F82E062FC7E0D0E010E061E0802F0E9402
:101AB00036048F2D0E940D040C2E01C0880F0A944D
:101AC000EAF7182B60E0802F0E943604219768F710
:101AD000812FDF91CF911F910F91FF9008954F9229
:101AE0005F926F927F928F929F92AF92BF92CF92AE
:101AF000DF92EF92FF920F931F93CF93DF930BE24E
:101B00001BE07801D0E0C0E08091B30B8C171D067C
:101B100041F0F701819191917F010E949F0C2196E4
:101B2000F3CFD0E0C0E08091B30B8C171D0671F5A8
:101B30002AE1A22E2AE0B22EF12CE12C8091220A79
:101B40008E151F0409F476C0F501C191D1915F0192
:101B500061E08B810E94360461E08A810E94360434
:101B60008E01095F1F4F4801D12CC12C8D818C152E
:101B70001D04A1F09CF06B818C810E944B0DF4013F
:101B800081934F01FFEFCF1ADF0AF0CFF801819167
:101B900091918F010E94B30C2196C5CF60E08A819C
:101BA0000E9436044801412CD12CC12C8D818C150A
:101BB0001D04D1F0CCF0F40181914F01512C682E1D
:101BC000712C80FF05C0642D650DCE010E94840C30
:101BD00075946794862D5394F8E05F12F0CF8FEFE1
:101BE000C81AD80A4F0EE2CF612C912C812C8D811E
:101BF00088151904D9F0D4F0F80181918F01712C66
:101C0000C82ED12C80FD06C040E0672D660DCE01A8
:101C10000E94900CD594C7948C2D7394F8E07F1299
:101C2000EFCF8FEF881A980A6F0EE1CF9FEFE91A76
:101C3000F90A84CFDF91CF911F910F91FF90EF9020
:101C4000DF90CF90BF90AF909F908F907F906F90DC
:101C50005F904F900C94C60C0F931F93CF93DF931C
:101C6000082F162FD42FC8E06D2F661F6627661F1A
:101C7000802F0E943604DD0F61E0812F0E94360420
:101C800060E0812F0E943604C15071F7DF91CF913F
:101C90001F910F910895EF92FF920F931F93CF938F
:101CA000DF931F921F92CDB7DEB78C0149832A8341
:101CB000660F771FF801E688F788EE0CFF1CCF014E
:101CC000801B910B8E159F0514F41192F8CF89811A
:101CD000F801E60FF71F81838A81808360E0F801B5
:101CE00084890E9436041E141F046CF4F1E0EF1A7C
:101CF000F108F801EE0DFF1D4081F801628980892D
:101D00000E942C0EF0CF61E0F80184890F900F90B3
:101D1000DF91CF911F910F91FF90EF900C943604BB
:101D200077FD0DC0FC0126893789621773073CF4E3
:101D300020E0411101C021E04CE00C944B0E0895CD
:101D4000CF92DF92EF92FF920F931F93CF93DF9387
:101D5000D82F85E6E82E83E0F82E10E000E0809191
:101D6000640380171106A1F0F701C190D1907F01A3
:101D7000C0E0F601808D8C1741F06C2F70E04D2F84
:101D8000C6010E94900ECF5FF4CF0F5F1F4FE7CFC9
:101D9000DF91CF911F910F91FF90EF90DF90CF9047
:101DA00008950F931F93CF93DF93FC01208D22237F
:101DB000F9F06217E8F4062F10E04423B1F0EC01CB
:101DC00086899789081719073CF42FEF240F4AE0FA
:101DD000B801CF010E944B0E40E0B801CE01DF9167
:101DE000CF911F910F910C94900E41E0B801F7CF65
:101DF000DF91CF911F910F910895FF920F931F9341
:101E0000CF93DF93EC0160E088810E943604FB8071
:101E10000F2D10E00C5F1F4F0C0F1D1FFF2049F00E
:101E2000F80142918F0169818A810E942C0EFA94F7
:101E3000F5CF61E08881DF91CF911F910F91FF90E5
:101E40000C9436040E944203882359F081E0809369
:101E500036138093371380913813909139130C9473
:101E60005C2B1092371390E080E008951F93CF937E
:101E7000DF930E94220FEC010E94220F182F0E9474
:101E8000220FCC0FDD1FCB59DC4F482F612F8881EB
:101E900099810E94D10EDF91CF911F910C94C60CB5
:101EA0000C94360F8F929F92AF92BF92CF92DF9297
:101EB000EF92FF920F931F93CF93DF930E94220F15
:101EC0008C010E94220FEC010E9493035C010E948E
:101ED000220F6C010E94220F000F111FF801EB5915
:101EE000FC4F00811181F801208D222389F1912C72
:101EF00048E07C01FF24DD27DD2488248A94840EB9
:101F0000C701082C02C0959587950A94E2F780FFD7
:101F10001CC0F80186899789C817D907ACF4F50168
:101F2000E90DF11DE081F0E0E553FC4F2491C6017D
:101F3000082C02C0959587950A94E2F780FD2068E9
:101F4000BE01C8010E944B0E9394482D8110D5CF3D
:101F5000DF91CF911F910F91FF90EF90DF90CF9085
:101F6000BF90AF909F908F900C94C60CCF930E941F
:101F7000220FC82F0E94220FBC018C2F0E94A004A8
:101F8000CF910C94C60C0E94220F2091FF0A2817B3
:101F9000190661F05CF0880F991FFC01E551F54FBF
:101FA000808191810E946D0B0C94C60C08950E9453
:101FB000220F2091FF0A2817190611F10CF1880F42
:101FC000991FFC01E551F54F0190F081E02D028051
:101FD000F381E02D1486158616861786108A118ADD
:101FE000128A138A14AA15AA16AA17AA14A215A24D
:101FF00016A217A2148A158A168A178A0C94C60C80
:1020000008958F929F92AF92BF92CF92DF92EF92FC
:10201000FF921F93CF93DF930E94220FEC010E9447
:10202000220FBC018091EA0A8C171D0609F00CF4FE
:10203000DCC0CC0FDD1FCA52D54F0990D881C02D0E
:10204000CD80DE800D2C000CEE08FF0889809A8080
:10205000092C000CAA08BB082F813885032E000C20
:10206000440B550B2C193D094E095F09072E000C36
:10207000880B990B681979098A099B090E94862D9A
:102080002B813C81032E000C440B550B2819390978
:102090004A095B090E94232DBA01A9014C0D5D1D5F
:1020A0006E1D7F1D052E000C660B770B8D859E85A2
:1020B000AF85B88984179507A607B70709F45CC0F0
:1020C0004D875E876F87788B8985811155C08A859A
:1020D000803308F04FC0188161E0812F0E946404B2
:1020E0008A85282F30E0F901EE0FFF1FE20FF31F62
:1020F000EA5BF54F1F739081907C912B90831B8638
:102100001C862CE0622F0E94962D829FB001112424
:1021100030E020E0AB01420F531FFA01EE0FFF1F2A
:10212000E40FF51FEA5BF54F908196FD16C02F5F17
:102130003F4F2C30310571F7813059F510928000F6
:1021400082E0809381001092850010928400B19A01
:1021500080916F00826080936F00EA858E2F90E0FF
:10216000FC01EE0FFF1FE80FF91FEA5BF54F8081BE
:102170008064808381E08987DF91CF911F91FF90F8
:10218000EF90DF90CF90BF90AF909F908F900C9486
:10219000C60C823061F410929000809391001092EE
:1021A00095001092940088BB80937100D6CF833045
:1021B00069F41092A00082E08093A1001092A50023
:1021C0001092A40089BB80937200C7CF8111C5CF44
:1021D0001092200182E0809321011092250110923B
:1021E00024018ABB80937300B8CFDF91CF911F91F8
:1021F000FF90EF90DF90CF90BF90AF909F908F9027
:102200000895AF92BF92CF92DF92EF92FF920F9319
:102210001F93CF93DF9300D01F92CDB7DEB75C0141
:1022200019821A821B821C82CE0101967C0110E069
:1022300000E06C01F501808191819C012F5F3F4F8F
:10224000318320830E94D10CF7018083F8018E3204
:1022500041F00F5F1F4F8FEFE81AF80A04301105A5
:1022600049F7EC0DFD1D1082C6010E945C2B0F90FA
:102270000F900F900F90DF91CF911F910F91FF90D2
:10228000EF90DF90CF90BF90AF900895FB01019049
:102290000020E9F73197AF01461B570BDC01ED91A8
:1022A000FC910280F381E02D199480916C128823B7
:1022B000A1F060913F1380913D1390913E130E94D5
:1022C000A00580917412882341F067EB72E0809141
:1022D0003D1390913E130E9446111092731210927A
:1022E0006C1280E008958F929F92AF92BF92EF920E
:1022F000FF920F931F93CF93DF93CDB7DEB7A197D4
:102300000FB6F894DEBF0FBECDBF7C01FA01CB0142
:1023100019A2223008F42AE08E010F5D1F4F822E91
:10232000912CB12CA12CBF01A50194010E94552D27
:10233000F901CA016A300CF5605DD8016E938D0118
:10234000232B242B252B79F790E080E0109721F0A8
:10235000BD01C7010E944611A1960FB6F894DEBFD9
:102360000FBECDBFDF91CF911F910F91FF90EF90E6
:10237000BF90AF909F908F900895695CDECFCF9310
:1023800090916C129923A9F0C82F6091401380910D
:102390003D1390913E130E94A0054C2F50E070E039
:1023A00060E02AE080913D1390913E13CF910C9410
:1023B0007311CF91089590916C12911110C091E01A
:1023C00090936C1290937312482F50E070E060E08D
:1023D0002AE080913D1390913E130C94731108955F
:1023E000EF92FF920F931F93CF93DF9390916C1214
:1023F00091112BC08B010E94DB1180916C128823FC
:10240000E1F06091401380913D1390913E130E9442
:10241000A005E0903D13F0903E13E801FE016491A9
:10242000662359F0D701ED91FC910190F081E02DE8
:10243000C70119952196892B89F7DF91CF911F91BB
:102440000F91FF90EF900C94551180E0DF91CF91A8
:102450001F910F91FF90EF9008950E949405609353
:10246000140A7093150A8093160A9093170A64E869
:1024700072E085E00C94F011CF93DF931092B30BD0
:1024800010922A0B1092130A2091640330E0E5E6C3
:10249000F3E090E080E02817390731F0A191B19185
:1024A00058961C920196F7CF109264034091EA0A65
:1024B00050E0C6EDDAE030E020E042175307D9F0F3
:1024C000A991B99119968C911997882389F01A9638
:1024D000EC911A978E2F90E0FC01EE0FFF1FE80F92
:1024E000F91FEA5BF54F80818F7B808319961C92E0
:1024F0002F5F3F4FE2CF1092EA0A2091FF0A30E0AF
:10250000EBEEFAE090E080E02817390729F0A1917E
:10251000B1911C920196F8CF1092FF0A20915203BC
:1025200030E0E8E5F3E090E080E02817390759F063
:10253000A191B191D4964C91D497442311F0D496A3
:102540001C920196F2CF109252031092450A2091EC
:10255000530330E0ECE5F3E090E080E02817390722
:1025600059F0A191B19118964C911897442311F00C
:1025700018961C920196F2CF109253032091220AD2
:1025800030E0EAE1FAE090E080E0821793075CF443
:10259000A191B19116964C911697442311F016967D
:1025A0001C920196F2CF1092220A1092C209109248
:1025B000C1091092190A68E872E085E0DF91CF91B5
:1025C0000C94F0116BE872E08FE00C94F011209104
:1025D000490930914A09820F932F911D90934A091E
:1025E000809349098C3D954040F06CE874E085E0AB
:1025F0000E94F01190E080E00895C90183599C4F3A
:102600000895CF92DF92EF92FF920F931F93CF9393
:10261000DF9390912A0B943109F45EC07901142F55
:10262000C62ED82E8FE10E94610B81110DC06BEA7E
:1026300073E085E0DF91CF911F910F91FF90EF90B4
:10264000DF90CF900C94F0118FE10E94E712EC0123
:10265000892B09F01A8200912A0BE02FF0E0EE0F8F
:10266000FF1FEE5FF44FD183C0831E821D82FC8268
:10267000EB82D882C98285E0819FF0011124EB5A58
:10268000FD4FDE01199601900D928A95E1F762E007
:102690008D2D0E94640462E089810E9464041E867C
:1026A000188A1F861A8A198A18861F8A188E198E08
:1026B0001A8E84EF91E0A0E0B0E08B8B9C8BAD8B09
:1026C000BE8B81E08A838DE094E19093010B80932F
:1026D000000B0F5F00932A0BDF91CF911F910F9199
:1026E000FF90EF90DF90CF90089581E08093190ADA
:1026F0006EE872E081E10C94F011CF93DF930E94B9
:10270000C60C8AE00E94DB118091C1099091C20938
:10271000892B91F18BE390E00E94D10CC82F80911E
:102720006C12882379F06091401380913D13909151
:102730003E130E94A0056C2F80913D1390913E1393
:102740000E94A005C1E0D0E08091C1099091C2092A
:10275000C817D90788F4CE01CB960E94D10C90916E
:102760006C12992339F0682F80913D1390913E139C
:102770000E94A0052196E8CFDF91CF910C945511CE
:10278000CF93DF9320916C122223A1F0EC01609192
:10279000401380913D1390913E130E94A005209715
:1027A00049F0BE0180913D1390913E13DF91CF918E
:1027B0000C944611DF91CF9108950E94C60C8AE0D7
:1027C0000E94DB1185E492E00E94C0138BE092E04E
:1027D0000E94C01380E092E00E94C0138AEB92E056
:1027E0000E94C0130C9455110F931F93CF93DF9346
:1027F000C82FD62F8A018DE10E94DB11C8010E94EB
:10280000C0138D2F0E94BF118C2F0E94BF11DF912A
:10281000CF911F910F910C9455110F931F93CF934C
:10282000C82F8A0186E00E94DB11C8010E94C013F4
:102830008C2F0E94BF11CF911F910F910C945511B5
:102840000F931F93CF93C82F8A0187E00E94DB115B
:10285000C8010E94C0138C2F0E94BF11CF911F91FD
:102860000F910C945511CF92DF92EF92FF92CF937C
:10287000DF936C01EA018CE10E94DB11CE010E9422
:10288000C01380916C12882321F1609140138091D4
:102890003D1390913E130E94A005C0913D13D0912D
:1028A0003E130D2C000CEE08FF082AE0B701A6012C
:1028B000F7FE0CC06DE2CE010E94A005442755270B
:1028C000BA014C195D096E097F092AE0CE010E9408
:1028D0007311DF91CF91FF90EF90DF90CF900C9428
:1028E00055111F93CF93DF9385ED8093BC008091AA
:1028F000530990915409A0915509B0915609079632
:10290000A11DB11D23E0B695A795979587952A95AA
:10291000D1F72091BC0024FD03C010929B0952C046
:10292000409153095091540960915509709156098D
:10293000452B462B472B69F30097A105B10541F0C4
:1029400025E32A95F1F700000197A109B109E1CF2C
:1029500080915209C1E0C0935109882399F1D09127
:10296000B8001091BA008091BC008A7B8093BC00B3
:1029700060E084E10E94360460E085E10E94360454
:1029800010929B09C0939D0910929C0961E084E11B
:102990000E94360461E085E10E9436048091B9000E
:1029A0008E7F8093B9008091B9008D7F8093B900AC
:1029B00088E48093B80085E48093BC001093BA004B
:1029C000D093B800DF91CF911F9108954F925F92FD
:1029D0006F927F928F929F92AF92BF92CF92DF922F
:1029E000EF92FF92CF93DF93EC016A017B0120E02D
:1029F00030E0A901CB01B6010E94E92B87FF04C09A
:102A0000F7FAF094F7F8F0948C8C9D8CAE8CBF8C18
:102A1000A7019601C501B4010E94E92B882309F49E
:102A200049C06CA97DA98EA99FA90E94F02B2B01FA
:102A30003C01A7019601C501B4010E944D2E9B01E6
:102A4000AC01C301B2010E944F2C0E94BF2E6CAB9F
:102A50007DAB8EAB9FABA701960160E070E080E09C
:102A600090E40E944D2E0E94002F26E53EE04DE2AC
:102A70005FE30E944F2C20E034E244E759E40E94D7
:102A80004F2C68AF79AF8AAF9BAFCC8EDD8EEE8EC8
:102A9000FF8ECE01DF91CF91FF90EF90DF90CF902E
:102AA000BF90AF909F908F907F906F905F904F906E
:102AB0000C945509DF91CF91FF90EF90DF90CF906C
:102AC000BF90AF909F908F907F906F905F904F904E
:102AD00008958F929F92AF92BF92CF92DF92EF9222
:102AE000FF920F931F93CF93DF939091FF0A9A3039
:102AF00009F49DC0C22ED42EA62EB82E8AE00E94C4
:102B0000610B811111C06CE674E085E0DF91CF911B
:102B10001F910F91FF90EF90DF90CF90BF90AF90FB
:102B20009F908F900C94F0118AE00E94E7127C0134
:102B3000009711F0FC011082E091FF0AF0E0EE0F27
:102B4000FF1FE551F54FF182E08284E40E94610BA2
:102B500081117AC06BE474E085E00E94F011F0907E
:102B6000FF0AEF2DF0E0EE0FFF1FE551F54FC0809B
:102B7000D180F601C281D38120E030E048EC53E4FB
:102B8000688D798D8A8D9B8D0E94E92B8823E9F1D0
:102B900080E090E0A8ECB3E4888F998FAA8FBB8F78
:102BA00080E090E4ACE1B5E4FE01E05CFF4F80839F
:102BB0009183A283B3838CA99DA9AEA9BFA918163E
:102BC00019061A061B060CF56C897D898E899F896A
:102BD0009B01AC010E944F2C4B015C016C8D7D8DE3
:102BE0008E8D9F8D9B01AC010E94E12D9B01AC015C
:102BF000C501B4010E944D2E0E94BF2E6CAB7DAB6F
:102C00008EAB9FABCE010E94550940E050E068E4D6
:102C100074E4F601828193810E94E6141016110675
:102C20001CF4C6010E946D0BF394F092FF0ADF9131
:102C3000CF911F910F91FF90EF90DF90CF90BF90B9
:102C4000AF909F908F90089584E4CA1072C0DB10FB
:102C500070C00E94E712EC01892B09F459C08FE77C
:102C600092E09983888381E08B831C861D861E8673
:102C70001F86188A198A1A8A1B8A1C8A1D8A1E8A2C
:102C80001F8A80E090E0A0E8BFE3888F998FAA8F29
:102C9000BB8F1C8E1D8E1E8E1F8E88A399A3AAA388
:102CA000BBA31CA21DA21EA21FA221E030E03DA7D3
:102CB0002CA72FEF2FA718A619A61AA61BA6DC82F1
:102CC000CD8224E02E8325E02F831EA61CAA1DAAF8
:102CD0001EAA1FAA18AE19AE1AAE1BAE1CAE1DAEB0
:102CE0001EAE1FAEFE01E05CFF4F80839183A28386
:102CF000B3831A82188619861A861B86CE010E9413
:102D0000340740E050E060E87FE3CE010E94E61423
:102D1000F701D383C283048381E08583002321F0FC
:102D200062E0802F0E94640481E0F70180831182B9
:102D300016CF0E94E712EC01892B51F38FE792E046
:102D40009983888384E08B831C861D861E861F865C
:102D5000188A198A1A8A1B8A1C8A1D8A1E8A1F8A47
:102D600080E090E0A0E8BFE3888F998FAA8FBB8FA7
:102D70001C8E1D8E1E8E1F8E88A399A3AAA3BBA393
:102D80001CA21DA21EA21FA221E030E03DA72CA77D
:102D90002FEF2FA718A619A61AA61BA6CC82AD82C4
:102DA000BE82DF8292CF0F931F93CF93DF930E9457
:102DB000220FEC010E9442038823F1F181E080930D
:102DC00036138093371380913813909139130E94F2
:102DD0007A2B2091FF0A2C171D06A1F19CF1CC0F34
:102DE000DD1FC551D54FE881F98111820681178118
:102DF000208531856017710782079307B9F06683D4
:102E00007783808791870280F381E02D0089118983
:102E100022893389601771078207930739F0608B25
:102E2000718B828B938BCF010E945509DF91CF91DB
:102E30001F910F910C94C60C1092371360E070E054
:102E4000CB01C7CFDF91CF911F910F910895FF92D2
:102E50000F931F93CF93DF930E94220FEC010E94E8
:102E600093038C010E94220FF82ECC0FDD1FC45A51
:102E7000DC4F0990D881C02D8885882369F160ECEA
:102E800072E0C8010E94A12B01E010E0009709F157
:102E90000E945C2B9885992391F0982F9770980148
:102EA00001C0220F9A95EAF7869586958695FE01D0
:102EB000E80FF11D8481FF2049F0282B248360EC6A
:102EC00072E090E080E00E94A12BE0CF20952823C3
:102ED000F5CFCE010E94FD0EDF91CF911F910F9192
:102EE000FF900C94C60C2F923F924F925F926F927C
:102EF0007F928F929F92AF92BF92CF92DF92EF928A
:102F0000FF920F931F93CF93DF930E94220F0E9493
:102F10009303C0915803D09159032CA9222309F49B
:102F2000A2C262EC72E00E94A12B8C019AE0292ED1
:102F3000312C2AE0822E912CA12CB12C01151105E7
:102F400009F491C26DE370E0C8010E947A30C12C8F
:102F5000D12C7601009749F0FC011192CF010E941B
:102F60005C2B6C01990FEE08FF0864EC72E0C8015D
:102F70000E948530892BE9F48AA980688AAB6FE0CA
:102F8000CE010E94290C8AA98F7B8AAB8CA18E7FEF
:102F90008CA36FE0CE010E94290CB601CE010E94E5
:102FA0004D0C62EC72E090E080E00E94A12B8C015D
:102FB000C5CF6BEC72E0C8010E948530892B69F4A3
:102FC0008AA98F778AAB6FE0CE010E94290C8AA96B
:102FD00080648AAB8CA18160DBCF63ED72E0C801B5
:102FE0000E948530892B31F58601F8EECF16F3E08B
:102FF000DF0610F007EE13E0C801B1010E94B02D0A
:103000007B01482F65E0CE010E94370CC701B1015A
:103010000E94B02D482F64E0CE010E94370CC801F9
:1030200064E670E00E94B02D462F63E0CE010E945E
:10303000370CB7CF6AED72E0C8010E948530892B4A
:1030400009F058C030EAC31636E8D30631E0E3068B
:10305000F10438F08FE9C82E86E8D82EEE24E394E8
:10306000F12CC701B601A50194010E94552D29013B
:103070003A01462F6AE0CE010E94370CC301B2012B
:10308000A50194010E94552D462F69E0CE010E94B2
:10309000370CC701B60124E630E040E050E00E9462
:1030A000552DCA01B901A50194010E94552D462F45
:1030B00068E0CE010E94370CC701B60128EE33E06C
:1030C00040E050E00E94552DCA01B901A5019401CC
:1030D0000E94552D462F67E0CE010E94370CC70194
:1030E000B60120E137E240E050E00E94552D422F2A
:1030F00066E09CCF61EE72E0C8010E948530892BAA
:1031000009F048C0860189A998A92FA52E7F9E7F26
:103110008E7FE0E1CE16E7E2DE06ACF5F1EFCF16EA
:10312000F8EDDF0634F0D7FC06C0CD2871F598AB7A
:1031300008C001EF18ED11950195110998AB9BA9F5
:10314000892B89AB2FA74CE06EE0CE010E94370C93
:103150004CE06DE0CE010E94370CC80164E670E0DF
:103160000E94C42DCB01B1010E94C42D482F6CE0F8
:10317000CE010E94370CC80168EE73E00E94C42D96
:10318000462F6BE053CF0FE017E23BA9932B98AB90
:10319000832BD7CF67EE72E0C8010E948530892B60
:1031A000B1F58C2D99A928A93FA54BA984366CF5BA
:1031B0008D392CF0C7FC04C02E7F242B03C08DE971
:1031C00081952E7F28AB9E7F942B99AB31603FA7D2
:1031D0006AE00E94A22D182F492F6CE0CE010E94B8
:1031E000370C412F6BE0CE010E94370C88A981700B
:1031F00088AB89A9817089AB6DE0CE010E94290C52
:103200006EE0CE010E94290CCCCE83E6D5CF6EEEC7
:1032100072E0C8010E948530892BB9F41BE0C1100F
:103220001AE0412F60E0CE010E94370C412F61E08F
:10323000CE010E94370C412F62E0CE010E94370C74
:103240008CA18E7F8CA36FE0DCCF69EF72E0C801A8
:103250000E948530892B81F41BE0C1101AE0412FB8
:1032600063E0CE010E94370C412F64E0CE010E9442
:10327000370C412F65E0DACE64E073E0C8010E94AC
:103280008530892BD1F41BE0C1101AE0412F66E094
:10329000CE010E94370C412F67E0CE010E94370C0F
:1032A000412F68E0CE010E94370C412F69E0CE012A
:1032B0000E94370C412F6AE0B9CE6FE073E0C8017D
:1032C0000E948530892BF9F489A9C11015C08E7F21
:1032D00089AB1BE0412F6BE0CE010E94370C412FE0
:1032E0006CE0CE010E94370C412F6DE0CE010E94B0
:1032F000370C412F6EE09ACE816089AB88A98E7F12
:1033000088AB1AE0E7CF69E173E0C8010E9485301D
:10331000892B51F48EA18E7F91E0C11001C090E005
:10332000892B8EA363E06DCF63E273E0C8010E9436
:103330008530892B51F488A58E7F91E0C11001C0A2
:1033400090E0892B88A765E05CCF6DE273E0C8014F
:103350000E948530892B51F48EA58E7F91E0C1109B
:1033600001C090E0892B8EA76BE04BCF67E373E041
:10337000C8010E948530892B09F013CE9AA99F7D40
:103380008CA58E7FC11038C090629AAB81608CA7EB
:103390006FE0CE010E94290C69E0CE010E94290C49
:1033A0008AA98F7E8AAB8BA58E7F8BA76FE0CE011B
:1033B0000E94290C68E0CE010E94290C8AA9846031
:1033C0008AAB8AA581608AA76FE0CE010E94290C92
:1033D00067E0CE010E94290C8AA9877F8AAB89A564
:1033E0008E7F89A76FE0CE010E94290C66E0CE0196
:1033F0000E94290C18AED5CD9AAB8CA76FE0CE01F8
:103400000E94290C69E0CE010E94290C8AA98061E2
:103410008AAB8BA581608BA76FE0CE010E94290C3F
:1034200068E0CE010E94290C8AA98B7F8AAB8AA50D
:103430008E7F8AA76FE0CE010E94290C67E0CE0143
:103440000E94290C8AA988608AAB89A5816089A716
:103450006FE0CE010E94290C66E0CE010E94290C8B
:1034600031E038AF9ECDDF91CF911F910F91FF904A
:10347000EF90DF90CF90BF90AF909F908F907F9014
:103480006F905F904F903F902F900C94C60CDF92FE
:10349000EF92FF920F931F93CF93DF938C01EB0179
:1034A0007B01E40EF51ED990C8010E940D2DD8169F
:1034B00021F06D2DC8010E94152D0F5F1F4FEC16D6
:1034C000FD0689F7DF91CF911F910F91FF90EF904B
:1034D000DF900895CF93DF930E94C60C0E94930360
:1034E000BC01EC0109900020E9F72197C81BD90B1A
:1034F000DD272091C1093091C209C90101968C0FC5
:103500009D1F883D9540E0F5AE014F5F5F4FC901BB
:10351000CB96FA01E80FF91F2091AD113091AE1151
:10352000E217F30710F40E94471A4091C109509125
:10353000C209C40FD51FD093C209C093C10980919D
:103540006C1281113FC085E00E94DB1180916C12EA
:10355000882391F06091401380913D1390913E1328
:103560000E94A005AE0170E060E02AE080913D136A
:1035700090913E130E947311DF91CF910C945511DD
:1035800080916C1281111EC085E00E94DB11809138
:103590006C12882389F36091401380913D139091C0
:1035A0003E130E94A005C0913D13D0913E136DE2E1
:1035B000CE010E94A0052AE041E050E060E070E00A
:1035C000CE01D8CFDF91CF910895CF93DF931F9293
:1035D0001F92CDB7DEB70E949303FC0190E3ABE0EE
:1035E000B2E001900D929A95E1F783E290E09A8320
:1035F00089838091AD119091AE11029748F041E01E
:1036000050E0BE016F5F7F4F90E080E00E94471A5C
:103610008091AD119091AE11C19740F04FE250E012
:103620006BE072E081E090E00E94471A80916C129A
:10363000811109C085E00E94DB118BE092E00E94BD
:10364000C0130E9455110F900F90DF91CF910895F4
:10365000CF92DF92EF92FF92CF93C82F4BE050E0D2
:1036600060E072E080E390E00E94DC0CC11109C0D0
:1036700080910002833529F4809101028E3409F48F
:1036800066C086E30E947705BC01990F880B990BF1
:10369000611571058105910511F00E94532B0E945F
:1036A000042BCC24CA942FE0D22EE12CF12CA701BC
:1036B00096010E94232D7F936F9384E493E09F9360
:1036C0008F9380E092E09F938F930E948E300E94B0
:1036D000042BA70196010E94232D7F936F938DE405
:1036E00093E09F938F9387E092E09F938F930E9444
:1036F0008E308DB79EB70C960FB6F8949EBF0FBE56
:103700008DBF8091AD119091AE11CC9700F14BE03F
:1037100050E060E072E080E390E00E94471AC1113F
:1037200016C08091AD119091AE11CC9780F08BE3D3
:1037300090E00E940D2D882351F060E08BE390E033
:10374000CF91FF90EF90DF90CF900C94152DCF91FB
:10375000FF90EF90DF90CF90089581E00E94281BAA
:1037600080916C12811109C08AE00E94DB1180E017
:1037700092E00E94C0130C94551108952F923F922D
:103780004F925F926F927F928F929F92AF92BF9271
:10379000CF92DF92EF92FF920F931F93CF93DF931D
:1037A00000D01F92CDB7DEB78091C1099091C209B8
:1037B000892B09F456C48BE390E09A8389831C8299
:1037C0001B82CE0101960E940111882309F449C48D
:1037D000BCE02B2E14EBA12EB12C00E2802E04E1D4
:1037E000902EEFEFE80FEC3008F09CC00E2E000C8E
:1037F000FF0B8827E150F44E8F4F0C94D82D0B1CF3
:10380000171E5F1C971C761DC51D3F1E2A1E9F1D7F
:103810004F1FF51EC11FCE0101960E940111D82E27
:103820008091B30B843491F184E00E94610B61E9D3
:1038300072E0882309F4C5C3EB80FC8084E00E9419
:10384000E7128C01009789F0DC011296DC92129746
:10385000C7018B52944F11969C938E9381E01396DF
:103860008C9362E08D2D0E9464048091B30BE82F4D
:10387000F0E0EE0FFF1FE55DF44F1183008390929F
:103880005503809254038F5F8093B30BBE016D5F2D
:103890007F4FCE0101960E94F90C182FCE010196A0
:1038A0000E940111882309F4D9C311119ACF1092F3
:1038B000BC0F61E973E085E00E94F011D2C3CE0134
:1038C00001960E940111F82E8091130A883251F15D
:1038D00082E00E94610B6FEA72E0882309F4FFC264
:1038E00082E00E94E7128C01009779F0FC01F082DF
:1038F000118261E08F2D0E946404D80111966C91B1
:10390000119770E08C910E94A0048091130AE82F17
:10391000F0E0EE0FFF1FED53F64F118300838F5F32
:103920008093130ACE0101960E94280DB6CFCE01D6
:1039300001960E940111482ECE0101960E940111AC
:10394000682ECE0101960E940111582ECE010196DB
:103950000E940111C82ECE0101960E940111782EFD
:10396000809164038430F1F289E10E94610B6DEC77
:1039700072E0882309F4B3C289E10E94E7128C0146
:10398000009711F0FC01108EE42C042C000CFF08B1
:10399000D0906403ED2DF0E0EE0FFF1FEB59FC4FCC
:1039A00011830083D8015196FC92EE925097852D99
:1039B000550C990B53969C938E935297862D660CBB
:1039C000990B55969C938E935497E72DE150FF0BDE
:1039D000389708F45CC088E090E0D80157969C9333
:1039E0008E93569761E0842D0E94640461E0F80193
:1039F00082890E94640461E0D80154968C910E94EF
:103A0000640461E0F80184890E943604D80151966B
:103A1000FC92EE925097F12CE12CF801868997895F
:103A2000E816F906B4F520E04FE0B701C8010E949E
:103A30004B0ED80156968D919C91E816F90634F4F8
:103A400027E04BE0B701C8010E944B0E20E049E09F
:103A5000B701C8010E944B0EF80186899789E816C4
:103A6000F90664F46624639420E0462DB701C8018A
:103A70000E944B0E6394F9E06F12F6CF41E0B7015C
:103A8000C8010E94900E2FEFE21AF20AC6CF872DCE
:103A9000A3CF708EF12CE12CF801808D8E151F04C0
:103AA00009F14C2D6E2DC8010E94D10E40E0B701E6
:103AB000C8010E94900ED80156968D919C91E816EF
:103AC000F90664F47724739420E0472DB701C80108
:103AD0000E944B0E7394B9E07B12F6CFEFEFEE1A13
:103AE000FE0ADACFD394D09264031CCFCE010196A4
:103AF0000E940111F82ECE0101960E940111182F8B
:103B0000CE0101960E940111082FCE0101960E945C
:103B10000111E82ECE0101960E9401112E2DEE0C0E
:103B2000330B402F000F550B612F110F770B10E057
:103B300000E08F2DFF0C990B0E946915F3CECE018A
:103B400001960E940111F82ECE0101960E940111EA
:103B5000182FCE0101960E940111E82ECE01019688
:103B60000E940111D82ECE0101960E940111082E4B
:103B7000000C990B2D2DDD0C330B4E2DEE0C550B3F
:103B8000612F110F770B8C01D4CFCE0101960E94CB
:103B90000111182F8091EA0A8A3009F4C3CE87E117
:103BA0000E94610B6EEE72E0882309F498C187E1F0
:103BB0000E94E712FC01892BB9F080914B098033F8
:103BC00098F591E0980F90934B09828790E0DC0183
:103BD000AA0FBB1FA80FB91FAA5BB54F28EB3BE08C
:103BE00012963C932E9311978091EA0AA82FB0E089
:103BF000AA0FBB1FAA52B54FED93FC9311861586F1
:103C000016861786108A118A128A138A148A1282DB
:103C10001182B482A38216821582B086A782108395
:103C20008F5F8093EA0A7ECE3FEF3287DDCFCE01F1
:103C300001960E940111182FCE0101960E940111D8
:103C40002B813C812B52344F40E0682F812F0E9402
:103C500001131CCECE0101960E940111182FCE0136
:103C600001960E940111082FCE0101960E940111B8
:103C70002B813C812B52344F482F602FE7CFCE0150
:103C800001960E940111CE0101960E940111CE0100
:103C900001960E94011110915203123009F442CE94
:103CA00089E30E94610B6CE073E0882309F417C17B
:103CB00089E390E00E94552F7C01EDE0DC01EC935C
:103CC000F8E01196FC93119712962C92129781E0CE
:103CD000D3968C93D397E12FF0E0EE0FFF1FE85AB5
:103CE000FC4FF182E0822DE0D5962C93D597D696A5
:103CF0002C92D69738E0D7963C93D797D4968C934E
:103D000061E088E00E94640461E0D70112968C9122
:103D10000E94640461E0F70180810E94640461E014
:103D2000D7018C910E94360461E0F70182810E94E4
:103D3000360461E0D70111968C910E943604F70198
:103D400033966701B3E2CB0ED11C1192EC15FD0541
:103D5000E1F760E3C7010E94C20B62E5C7010E9460
:103D6000C20B62E0C7010E94C20B66E0C7010E945D
:103D7000C20B712C04E020E030E0A901672DC701DF
:103D80000E94DC0B7394E0E27E12F4CFD601E0E1F6
:103D90001D92EA95E9F761E08AE00E94640461E01F
:103DA0008AE00E943604D701D2968C91D297816026
:103DB000D2968C936FE0C7010E94290CF70182A96B
:103DC000826082AB6FE0C7010E94290CD7019796F1
:103DD0008C919797816097968C9364E0C7010E94BD
:103DE000290C1F5F109352039DCDCE0101960E94B6
:103DF0000111D82ECE0101960E940111C82E80918A
:103E0000450A803109F442CD8DE10E94610B68E2E0
:103E100073E0882309F4D5C0EB80FC808DE10E941B
:103E2000E7128C01009739F1FC013696DF0120E1A1
:103E30001D922A95E9F7DC0157961C921E9256971F
:103E400058961C9258971596CC9215971296DC921C
:103E50001297C7018B52944F11969C938E93149690
:103E60001C921E92139762E08D2D0E946404F8014B
:103E700082810E9477058091450AE82FF0E0EE0FDD
:103E8000FF1FEB5DF54F1183008323E334E1309393
:103E9000240A2093230A8F5F8093450AF7CCCE0132
:103EA00001960E940111C82ECE0101960E940111B7
:103EB000582ECE0101960E940111682ECE01019666
:103EC0000E940111782E80915303843009F42ACD89
:103ED00089E00E94610B811106C068E473E085E00F
:103EE0000E94F0111FCD89E00E94E7128C01D09052
:103EF0005303ED2CF12CEE0CFF1CF701E45AFC4FA0
:103F00001183008381E0D80118968C931897CC9286
:103F100011965C92119712966C92129713967C925E
:103F200061E08C2D0E94640461E0F80181810E94AF
:103F3000640461E0D80112968C910E946404F80137
:103F40009381349680E0981719F011928F5FFBCF20
:103F5000C8010E94FD0EF701E45AFC4F8081918157
:103F6000DC0113963C91FC01349620E0321719F0E5
:103F700011922F5FFBCF0E94FD0ED394D09253037A
:103F8000D1CCCE0101960E940111682ECE0101967E
:103F90000E940111382ECE0101960E940111482E77
:103FA000CE0101960E940111582E8091220A843080
:103FB00009F46CCC8BE00E94610B811106C06DE6A8
:103FC00073E085E00E94F01161CCCB80DC808BE057
:103FD0000E94E7128C01009731F0FC0116821782D3
:103FE0001086118612867090220AE72CF12CEE0CB6
:103FF000FF1C9701265E354F7901D9010D931C9363
:10400000F801628233824482C6018B52944F9183BD
:104010008083558261E0862D0E94640461E0D801AE
:1040200013968C910E94640460E0F80184810E94E0
:10403000640481E0D80116968C93D701ED91FC9130
:104040001782108611861286E4EFF3E1F09357038E
:10405000E093560373947092220A18CC112309F44A
:1040600026CC0F900F900F900F90DF91CF911F9162
:104070000F91FF90EF90DF90CF90BF90AF909F9007
:104080008F907F906F905F904F903F902F9008950A
:104090000E94BE1B0C9475131F920F920FB60F92C5
:1040A00011242F933F938F939F93AF93BF9380914E
:1040B000D10B9091D20BA091D30BB091D40B309136
:1040C000D00B23E0230F2D3758F50196A11DB11D0C
:1040D0002093D00B8093D10B9093D20BA093D30B52
:1040E000B093D40B8091CC0B9091CD0BA091CE0BC3
:1040F000B091CF0B0196A11DB11D8093CC0B909375
:10410000CD0BA093CE0BB093CF0BBF91AF919F91EE
:104110008F913F912F910F900FBE0F901F90189588
:1041200026E8230F0296A11DB11DD2CF1F920F9238
:104130000FB60F9211240BB60F922F933F934F930C
:104140005F936F937F938F939F93AF93BF93EF93FF
:10415000FF938FEA91E10E942006FF91EF91BF91BA
:10416000AF919F918F917F916F915F914F913F910F
:104170002F910F900BBE0F900FBE0F901F901895B0
:104180001F920F920FB60F9211240BB60F922F931E
:104190005F936F937F938F939F93AF93BF93EF93AF
:1041A000FF93E091BF11F091C0118081E091C511A2
:1041B000F091C61182FD26C020818091C81190E047
:1041C000019660E670E00E94B02D9091C911981799
:1041D00041F0E091C811F0E0E155FE4E258F80934B
:1041E000C811FF91EF91BF91AF919F918F917F91F6
:1041F0006F915F912F910F900BBE0F900FBE0F909C
:104200001F9018958081EDCF1F920F920FB60F92DD
:1042100011240BB60F922F933F934F935F936F939D
:104220007F938F939F93AF93BF93EF93FF9380916F
:10423000B900887F803609F44DC008F040C088324C
:1042400009F4A7C028F5803109F49BC0C8F488237D
:1042500009F4F7C0883009F494C0FF91EF91BF9141
:10426000AF919F918F917F916F915F914F913F910E
:104270002F910F900BBE0F900FBE0F901F901895AF
:10428000883109F486C0803241F780939A0914C0BE
:10429000803409F49BC040F48033B9F38833E9F6E5
:1042A00080939A0985ECAEC0803509F483C08835C7
:1042B00009F494C0883489F60E947114CECF8839ED
:1042C00009F48AC038F5883729F050F4883611F09F
:1042D000803719F683E080939B091092990955C0A5
:1042E000883809F479C0803919F0803809F0B5CFE1
:1042F00080919909803208F06FC0E091990981E0BE
:104300008E0F809399098091BB00F0E0E758F64F3B
:1043100080833BC0803B39F0D0F4803A09F477C009
:10432000883A09F09ACF84E080939B09109278092B
:1043300010927709F0E0E0E01995809177098111FA
:104340000FC081E0809377091092570909C0803C23
:1043500009F4A8CF883C09F4A5CF883B09F07DCFAC
:10436000E091780981E08E0F80937809F0E0E95AB6
:10437000F64F80818093BB009091780980917709F6
:1043800029C08091C0098093BB0085EC8093BC005C
:1043900064CF9091BF098091BE09981758F5E091BC
:1043A000BF0981E08E0F8093BF09F0E0E256F64F1F
:1043B0008081E9CFE091BF0981E08E0F8093BF0932
:1043C0008091BB00F0E0E256F64F80839091BF09E8
:1043D0008091BE099817C8F285E8D8CFE091BF094F
:1043E00081E08E0F8093BF098091BB00F0E0E25620
:1043F000F64F808380919D0981115ECF81E080938B
:104400009C0984EA8093BC0010929B0926CF85EC1E
:104410008093BC0010929B0980919909803230F4FE
:10442000E0919909F0E0E758F64F10826091990900
:1044300070E089E799E0F0E0E0E0199510929909C1
:104440000CCF10929A0938CF1F920F920FB60F928D
:1044500011240BB60F922F933F934F935F936F935B
:104460007F938F939F93AF93BF93EF93FF9348E214
:1044700051E064E271E090E080E00E94A70AFF91C1
:10448000EF91BF91AF919F918F917F916F915F91CC
:104490004F913F912F910F900BBE0F900FBE0F9039
:1044A0001F9018951F920F920FB60F9211240BB602
:1044B0000F922F933F934F935F936F937F938F93BD
:1044C0009F93AF93BF93EF93FF9348EA50E064EA62
:1044D00070E083E090E00E94A70AFF91EF91BF9106
:1044E000AF919F918F917F916F915F914F913F918C
:1044F0002F910F900BBE0F900FBE0F901F9018952D
:104500001F920F920FB60F9211240BB60F922F939A
:104510003F934F935F936F937F938F939F93AF934B
:10452000BF93EF93FF9348E950E064E970E082E0C5
:1045300090E00E94A70AFF91EF91BF91AF919F91E8
:104540008F917F916F915F914F913F912F910F903C
:104550000BBE0F900FBE0F901F9018951F920F92D9
:104560000FB60F9211240BB60F922F933F934F93D8
:104570005F936F937F938F939F93AF93BF93EF93CB
:10458000FF9348E850E064E870E081E090E00E942A
:10459000A70AFF91EF91BF91AF919F918F917F916A
:1045A0006F915F914F913F912F910F900BBE0F90A4
:1045B0000FBE0F901F9018951092B2111092B1116A
:1045C00088EE93E0A0E0B0E08093B3119093B41133
:1045D000A093B511B093B61189EA92E09093B0110F
:1045E0008093AF1185EC90E09093BC118093BB1148
:1045F00084EC90E09093BE118093BD1180EC90E02C
:104600009093C0118093BF1181EC90E09093C21100
:104610008093C11182EC90E09093C4118093C311F8
:1046200086EC90E09093C6118093C5111092C8114A
:104630001092C9111092CA111092CB1180E090E132
:104640009093AE118093AD111092431310924213C8
:104650008FEA91E190933E1380933D131092741270
:104660008CE2809340138BE380933F138FE280931F
:10467000411380E680936F128FE580937012109241
:104680006E12109239131092381310923B1310923D
:104690003A1381E080933613E4E4F3E1119211922E
:1046A00083E1E038F807D1F7109273120895CF93A1
:1046B000DF9300D000D000D01F921F92CDB7DEB79D
:1046C000789484B5826084BD84B5816084BD85B5ED
:1046D000826085BD85B5816085BD80916E008160F9
:1046E00080936E001092810080918100826080939F
:1046F00081008091810081608093810080918000A1
:104700008160809380008091B10084608093B100CB
:104710008091B00081608093B000809191008260B0
:1047200080939100809191008160809391008091AD
:1047300090008160809390008091A10082608093BE
:10474000A1008091A10081608093A1008091A000D0
:1047500081608093A000809121018260809321017B
:1047600080912101816080932101809120018160ED
:104770008093200180917A00846080937A008091F8
:104780007A00826080937A0080917A0081608093C1
:104790007A0080917A00806880937A001092C1003C
:1047A000E091BF11F091C01182E08083E091BB11D4
:1047B000F091BC111082E091BD11F091BE1180E129
:1047C00080831092C711E091C311F091C41186E06B
:1047D0008083E091C111F091C2118081806180835A
:1047E000E091C111F091C211808188608083E091D5
:1047F000C111F091C211808180688083E091C11164
:10480000F091C21180818F7D80838DE292E190933F
:1048100043138093421386E39FE090934513809364
:10482000441382E59FE0909347138093461380E5FD
:104830009FE0909379138093781386EB9FE0909399
:1048400049138093481383ED96E190934B13809323
:104850004A1383EC9FE090936F1380936E1387ED60
:104860009FE0909371138093701381E090E1909397
:104870004D1380934C138DED93E1909357138093D8
:1048800056138DE793E190935D1380935C138AE652
:104890009AE190935B1380935A138CE392E1909387
:1048A0005F1380935E1382EE92E190936113809385
:1048B000601388E490E2909365138093641385EE0F
:1048C0009AE190936B1380936A138DEA9BE1909326
:1048D0006D1380936C138FE69DE090937313809318
:1048E000721383E797E1909377138093761387E2AF
:1048F00097E190937B1380937A1381E080937412F5
:1049000080E00E94281B0E94C60CE090AD11F09040
:10491000AE111092C2091092C1098BE390E08C0194
:104920000F5F1F4F0E94D10C482F2091C109309179
:10493000C209C90101969093C2098093C109E0168A
:10494000F10608F026C163EA74E085E00E94F011E8
:10495000198241E050E0BE016F5F7F4F90E080E040
:104960000E94DC0C8981833241F44FE250E06BE01D
:1049700072E081E090E00E94DC0C0E94940560935C
:10498000C80B7093C90B8093CA0B9093CB0B0E94FA
:1049900094056093C40B7093C50B8093C60B9093E2
:1049A000C70B0E9494050E9494056C5F7F4F8F4F48
:1049B0009F4F6093B80B7093B90B8093BA0B909391
:1049C000BB0B0E9494056C5F7F4F8F4F9F4F60938E
:1049D000BC0B7093BD0B8093BE0B9093BF0B0E94DA
:1049E00094056A5F7F4F8F4F9F4F6093B40B709316
:1049F000B50B8093B60B9093B70B0E949405685F3C
:104A00007F4F8F4F9F4F6093C00B7093C10B80936C
:104A1000C20B9093C30B48E5242E42E0342E54EB96
:104A2000452E512C612C712C809173128111CFC0B5
:104A300080913D1390913E13DC01ED91FC91008437
:104A4000F185E02D1995892B09F4C1C080913D13A2
:104A500090913E13DC01ED91FC910084F185E02DF5
:104A6000199530E6C32ED12C8036910564F48091DF
:104A70003D1390913E13DC01ED91FC910084F18592
:104A8000E02D19956C0100913D1310913E1325ED19
:104A9000A22E22E1B22E4501F12CE12CCE14DF042E
:104AA00029F10E949405F8016087718782879387B6
:104AB000D801ED91FC910284F385E02DC801199590
:104AC00097FF29C50E949405F8012085318542850C
:104AD0005385621B730B840B950B248135814681B2
:104AE0005781621773078407950710F310E000E001
:104AF000C016D10609F498CFD5019D915D011092A1
:104B000035133091411320917212909372129313C6
:104B100004C0921302C01092721280916E12E82F9C
:104B2000F0E040913F13E459FD4E94133EC032171C
:104B3000E1F11186882329F0B1E0B093351310928A
:104B4000721210926E121092391310923813109242
:104B50003B1310923A13E1E0E09336138091351342
:104B6000813091F50E94220F80936D128E3130F5C5
:104B700020913713222311F1FC01FF27EE0FFF1FB5
:104B8000EC5BFC4E0190F081E02D3097B9F0199567
:104B90001BC0C8014111C3CE3093C2092093C10983
:104BA0000E94BE1B0E947513D3CE91878F5F8093A6
:104BB0006E1290917012891720F6D0CFE0914213B7
:104BC000F0914313309719F70F5F1F4F91CFC090AB
:104BD000140AD090150AE090160AF090170A8091F6
:104BE000180A81119FC40E9494056C197D098E09D1
:104BF0009F09613A7B4B8D409105E8F081E08093FD
:104C0000180A03EC19E0F12CE12C8091130A8E159F
:104C10001F0471F0D801ED91FD918D01118270E0BA
:104C200060E080810E94A004BFEFEB1AFB0AEDCF89
:104C300081E00E94A00E8091190A882309F468C4BB
:104C40000E9494050091C80B1091C90B2091CA0BCA
:104C50003091CB0B601B710B820B930B6A3071058B
:104C600081059105B8F10E9494056093C80B70937B
:104C7000C90B8093CA0B9093CB0B0BE2C02E0BE0B9
:104C8000D02E10E000E08091B30B8017110611F1D7
:104C9000F601E190F1906F01D70112968C910E947C
:104CA0000D04F7019381891761F091E0811101C032
:104CB00090E0D70113969C93811108C0C7010E9410
:104CC000B30C0F5F1F4FDFCF80E0B3CFC7010E944F
:104CD0009F0CF7CF0E9494050091C40B1091C50B57
:104CE0002091C60B3091C70B60177107820793079D
:104CF00009F450C10E9494056093C40B7093C50BD6
:104D00008093C60B9093C70B12E0812E1BE0912E6F
:104D1000B12CA12C80912A0B8A151B0409F43AC1ED
:104D2000F401C190D1904F01DB86CA86D60112965C
:104D30008C911297882309F4E9C08C910E940D048C
:104D40006C01EA85FB8581810E940D047C010E9433
:104D50009405AB01BC0181E090E0EF2811F090E0F8
:104D600080E0880F991F21E0CD2809F020E0022F74
:104D7000082BAA85BB855B96CD90DD90ED90FC90CD
:104D80005E97DB01CA018C199D09AE09BF09853602
:104D90009105A105B10508F4BDC0AA85BB8518968B
:104DA0008C911897823008F4B5C0FD01438F548F61
:104DB000658F768F81508087AA85BB851E96EC9182
:104DC0001E970E1709F461C01896DC90B6E0BD1569
:104DD00008F0BFC023E330E03B832A83AA85BB856C
:104DE0001D96EC90B4E0EB02F0011124A02F002EF0
:104DF000000CBB0BEA2BFB2BEB56FD4FE0811E2F6B
:104E00002A813B811203C001139F900D11249C0144
:104E10000E2C02C0220F331F0A94E2F7EA85FB85AD
:104E200087859089FC01E20FF31FF887EF839F01CC
:104E3000EA85FB85308B2787AE0FBF1F19962C9113
:104E40002223F9F083899489A589B689878B908F6D
:104E5000A18FB28F438B548B658B768B8F81988516
:104E600002C095958795EA94E2F7928B818B8D2D00
:104E70008C3008F08BE0DD24D394D80EEA85FB85D6
:104E8000D086AA85BB851E960C93EA85FB85E188B2
:104E9000F28885819681E816F906C1F16701C81A82
:104EA000D90AC601E091000BF091010BCC0CDD1C7E
:104EB000309709F46CC0AA85BB8513964D915C911F
:104EC00014979C012F5C3F4F2336310508F054C0E6
:104ED00097FD44C06C9180E01995CE0CDF1CB1E4C5
:104EE000CB16BFE1DB0664F0EA85FB8587859089F8
:104EF00083709927908B8787128A118AF12CE12C75
:104F0000AA85BB851696FC92EE921597BFEFAB1A59
:104F1000BB0A00CFAA85BB855796CD90DD90ED905A
:104F2000FC905A97DB01CA018C199D09AE09BF0993
:104F3000853F9140A105B10508F43ECFAA85BB8508
:104F40005B964D935D936D937C935E9718961C9240
:104F500033CF81E090E09B838A8340CFAA85BB85D5
:104F600011966C9182E01995C7018C199D09803CBE
:104F7000904E0CF4B9CFC4CFAA85BB8597FD03C072
:104F80006C9181E0A9CF11966C9183E0ECCF97FDF5
:104F9000EBCFA3CFEBEEFAE0FB83EA83F12CE12C1D
:104FA0008091FF0A8E151F0409F4A1C0AA81BB815C
:104FB0000D911D91BB83AA83F801C280D380F601B5
:104FC00084A195A1A6A1B7A1892B8A2B8B2B09F4CB
:104FD0005DC09FB7F8948090CC0B9090CD0BA090C3
:104FE000CE0BB090CF0B86B5A89B07C08F3F29F0A2
:104FF000FFEF8F1A9F0AAF0ABF0A9FBFBA2CA92CD6
:10500000982C8824880E911CA11CB11C72E0880C7D
:10501000991CAA1CBB1C7A95D1F7F60180A591A515
:10502000A2A5B3A5B501A401481B590B6A0B7B0BC4
:1050300084A195A1A6A1B7A1481759076A077B07C4
:1050400028F184859585A685B7852281222309F4D8
:105050004AC00196A11DB11D84879587A687B78791
:10506000D6011C964D915D916D917C911F97ED91AC
:10507000FC910680F781E02DC6011995F60180A606
:1050800091A6A2A6B3A6C6010E945509D8011496FE
:105090008C910E940D04F8019581891701F1858397
:1050A00081111DC081818823D1F00280F381E02D20
:1050B0001486158616861786108A118A128A138A14
:1050C00014AA15AA16AA17AA14A215A216A217A204
:1050D000148A158A168A178AD80111961C92BFEF76
:1050E000EB1AFB0A5DCF0197A109B109B5CF0E9468
:1050F00094050091C00B1091C10B2091C20B30910F
:10510000C30B601B710B820B930B6530710581051E
:10511000910508F4AEC00E9494056093C00B709393
:10512000C10B8093C20B9093C30B56EDC52E5AE072
:10513000D52EF12CE12C8091EA0A8E151F0409F47A
:1051400098C0F601019111916F01F801818992894E
:10515000A389B48945855685678570898417950725
:10516000A607B70709F47DC0481759076A077B07E8
:105170000CF07BC00197A109B109818B928BA38BA5
:10518000B48BF801A189B289A032F2E0BF07BCF567
:10519000F801838598E8892E912C881A910887FD5B
:1051A0009394880C991C880C991C092C000CAA0853
:1051B000BB0884859101281B310987FD3395220F97
:1051C000331F220F331F032E000C440B550B2819DD
:1051D00039094A095B09A53BB10514F0A4EBB0E01D
:1051E000B7FF02C0B0E0A0E00E944D2DA3019201E4
:1051F0000E94232D820E931EA41EB51ED401F80119
:105200002285203370F5838548E850E0481B51091A
:1052100087FD5395CA01880F991F880F991FA817FA
:10522000B9077CF08485F101E81BF10987FDF3954E
:10523000CF01880F991F880F991FA817B9070CF481
:10524000CD010297880F991F4FB7F89430E0F9010C
:10525000EE0FFF1FE20FF31FEA5BF54F928381838E
:105260004FBFFFEFEF1AFF0A66CF0196A11DB11DD8
:1052700084CF0E9494050091BC0B1091BD0B20912E
:10528000BE0B3091BF0B601B710B820B930B623313
:1052900071058105910508F449C00E949405609349
:1052A000BC0B7093BD0B8093BE0B9093BF0B65E25C
:1052B000E62E6AE0F62E10E000E08091450A8017A5
:1052C0001106A1F1F701A191B1917F0156968D913F
:1052D0009C91579753E0969587955A95E1F71396C9
:1052E0002D913C9114976C01C21AD30A9601D7FEF6
:1052F00003C031952195310915964C9115974217A8
:10530000130609F084F414969C938E931397E091FE
:10531000230AF091240A309731F04D915C91119756
:1053200012966C9119950F5F1F4FC7CF0E9494057D
:105330000091B80B1091B90B2091BA0B3091BB0BB7
:10534000601B710B820B930B6A307105810591050F
:1053500008F466C00E9494056093B80B7093B90B73
:105360008093BA0B9093BB0B45E2C42E4AE0D42E37
:10537000F12CE12C8091450A8E151F0409F450C0D0
:10538000D6010D911D916D01D8015896EC91589759
:10539000F0E03396EE0FFF1FE00FF11F56968D9150
:1053A0009C91579720813181821B930B57969C9338
:1053B0008E93569712968C910E947705D801589635
:1053C000EC915897F0E03396EE0FFF1FE00FF11FBE
:1053D000918380835896EC915897F0E03396EE0FC6
:1053E000FF1FE00FF11F56968D919C9157972081DA
:1053F0003181820F931F57969C938E9356975896A0
:105400008C9158978F5F58968C93589758968C919B
:105410005897877058968C93BFEFEB1AFB0AAACF68
:105420000E9494050091B40B1091B50B2091B60B1E
:105430003091B70B601771078207930709F468C0B2
:105440000E9494056093B40B7093B50B8093B60BD8
:105450009093B70BEAE1FAE0F887EF83D12CC12CE7
:105460008091220A8C151D0409F452C0AF81B885C1
:105470000D911D91B887AF8361E0F80183810E948F
:10548000360461E0D80112968C910E9436045801CE
:10549000B7E0AB0EB11CF12CE12CF80185818E1523
:1054A0001F0471F16CF1638184810E944B0D982E71
:1054B000D5018D905D018815F9F0BE2DBB0FBB0F96
:1054C000BB0FB9878A831E828A81882580FF08C026
:1054D0004A8141706985EE816E0FC8010E94900C6F
:1054E0008694FA81F695FA832E812F5F2E832830D9
:1054F00059F7F501319790823FEFE31AF30ACDCFC8
:1055000060E082810E943604BFEFCB1ADB0AA8CF8D
:105510000E94AF0689CAF40181934F01FFEFEF1A91
:10552000FF0ABCCA0E9494056C197D098E099F0967
:10553000603A7B4B8D40910508F07DCB1092180AA4
:1055400083ECE82E89E0F82E10E000E08091130A49
:105550008017110609F4B8CBD701ED91FD917D01BB
:10556000618170E080810E94A0040F5F1F4FEECF29
:105570008F929F92AF92BF92CF92DF92EF92FF9263
:10558000CF93DF93EC01688179818A819B816115DA
:1055900071058105910521F464E279ED8BE597E0D1
:1055A0002DE133EF41E050E00E94232D49015A01E3
:1055B0009B01AC01A7EAB1E40E94422D6B017C0182
:1055C000ACEEB4EFA50194010E94502DC60ED71E7B
:1055D000E81EF91EF7FE06C081E0C81AD108E108EE
:1055E00080E8F80AC882D982EA82FB82C701B60144
:1055F0009F77DF91CF91FF90EF90DF90CF90BF909A
:10560000AF909F908F9008958F929F92AF92BF928C
:10561000CF92DF92EF92FF9260913B0270913C0239
:1056200080913D0290913E026115710581059105C1
:1056300021F464E279ED8BE597E02DE133EF41E071
:1056400050E00E94232D49015A019B01AC01A7EAB9
:10565000B1E40E94422D6B017C01ACEEB4EFA501D8
:1056600094010E94502DC60ED71EE81EF91EF7FEAB
:1056700006C081E0C81AD108E10880E8F80AC092A3
:105680003B02D0923C02E0923D02F0923E02C70102
:10569000B6019F77FF90EF90DF90CF90BF90AF90D3
:1056A0009F908F90089560933B0270933C0280938B
:1056B0003D0290933E020895FC0188279927E894C3
:1056C00021912032E9F3293010F02E30C8F32B322B
:1056D00041F02D3239F4689404C00E94E12B820F0E
:1056E000911D219120532A30C0F31EF4909581958D
:1056F0009F4F08951F93FC0199278827BC01E894C8
:1057000011911032E9F3193010F01E30C8F31B323A
:1057100051F01D3249F4689406C00E94CC2B610FF1
:10572000711D811D911D119110531A30B0F33EF47B
:1057300090958095709561957F4F8F4F9F4F1F91EA
:10574000089540E853E10C94A52BFA01A191B08192
:10575000009719F41097E1F0CD01DC01CD010D9017
:10576000002011F4C00113C0FB012191222319F084
:105770002015D9F7F3CFFB012191201519F41E92C2
:10578000119606C02223C1F70D900020A1F7D00189
:10579000FA01A193B0830895592F482F372F262F50
:1057A000660F771F881F991F660F771F881F991F25
:1057B000620F731F841F951F660F771F881F991F25
:1057C00008957AE0979F902D879F802D910D112449
:1057D00008950E942B2C08F481E00895E89409C0F4
:1057E00097FB3EF490958095709561957F4F8F4F14
:1057F0009F4F9923A9F0F92F96E9BB279395F6952A
:10580000879577956795B795F111F8CFFAF4BB0FA7
:1058100011F460FF1BC06F5F7F4F8F4F9F4F16C00B
:10582000882311F096E911C0772321F09EE8872F95
:10583000762F05C0662371F096E8862F70E060E051
:105840002AF09A95660F771F881FDAF7880F9695CA
:10585000879597F90895990F0008550FAA0BE0E86E
:10586000FEEF16161706E807F907C0F01216130622
:10587000E407F50798F0621B730B840B950B39F462
:105880000A2661F0232B242B252B21F408950A26C8
:1058900009F4A140A6958FEF811D811D08950E94F6
:1058A000622C0C94D32C0E94C52C38F00E94CC2C76
:1058B00020F0952311F00C94BC2C0C94C22C1124D4
:1058C0000C94072D0E94E42C70F3959FC1F3950F63
:1058D00050E0551F629FF001729FBB27F00DB11D74
:1058E000639FAA27F00DB11DAA1F649F6627B00D04
:1058F000A11D661F829F2227B00DA11D621F739FED
:10590000B00DA11D621F839FA00D611D221F749FFA
:105910003327A00D611D231F849F600D211D822F41
:10592000762F6A2F11249F5750409AF0F1F0882368
:105930004AF0EE0FFF1FBB1F661F771F881F915095
:105940005040A9F79E3F510580F00C94BC2C0C945C
:10595000072D5F3FE4F3983ED4F3869577956795DE
:10596000B795F795E7959F5FC1F7FE2B880F911DBF
:105970009695879597F9089597F99F6780E870E065
:1059800060E008959FEF80EC089500240A941616B5
:10599000170618060906089500240A94121613061D
:1059A000140605060895092E0394000C11F48823AB
:1059B00052F0BB0F40F4BF2B11F460FF04C06F5FC7
:1059C0007F4F8F4F9F4F089557FD9058440F551F9D
:1059D00059F05F3F71F04795880F97FB991F61F071
:1059E0009F3F79F087950895121613061406551FE8
:1059F000F2CF4695F1DF08C0161617061806991F54
:105A0000F1CF86957105610508940895E894BB2748
:105A100066277727CB0197F90895F999FECF92BDB4
:105A200081BDF89A992780B50895262FF999FECF60
:105A30001FBA92BD81BD20BD0FB6F894FA9AF99AAB
:105A40000FBE01960895052E97FB1EF400940E9448
:105A50003A2D57FD07D00E94552D07FC03D04EF478
:105A60000C943A2D50954095309521953F4F4F4FCE
:105A70005F4F089590958095709561957F4F8F4FFA
:105A80009F4F08950E94772DA59F900DB49F900D74
:105A9000A49F800D911D11240895B7FF0C94422DF1
:105AA0000E94422D821B930B0895A1E21A2EAA1B7D
:105AB000BB1BFD010DC0AA1FBB1FEE1FFF1FA217BE
:105AC000B307E407F50720F0A21BB30BE40BF50BBB
:105AD000661F771F881F991F1A9469F76095709544
